:10000000DFEF0AF00000000000EF00F00000000049
:0A0010000000000000000000F3D71C
:0E001C00010198B102D0899201D089821200B0
:0E002A00010198B102D0899801D08988120096
:0E003800010198B102D08B9601D08B86120088
:0E004600010198B102D08D9201D08D8212007E
:0E005400010198B102D08B9E01D08B8E12005C
:0E006200010198B102D08B9801D08B8812005A
:0E007000010198B102D08B9401D08B84120054
:0E007E00010198B102D08B9601D08B86120042
:0E008C00010198B102D08A9201D08A8212003E
:0E009A00010198B102D08B9C01D08B8C12001A
:0E00A800010198B102D08B9801D08B88120014
:0E00B600010198B102D08B9A01D08B8A120002
:0E00C400010198B102D0899001D0898012000C
:0E00D200010198B102D08B9E01D08B8E1200DE
:0E00E000ACB202D00000FCD798C1ADFF1200F8
:0E00EE00010198B102D08B9001D08B801200DE
:1000FC0098C1C9FF016A0150000A05E1000EC7B0A2
:0C010C00010E016EF8D7C9CF01F01200FF
:0E011800010198B102D08B9A01D08B8A12009F
:1001260098C16AFF016A0150000A05E1000E68B035
:0C013600010E016EF8D76ACF01F0120034
:0E014200010198B102D08B9801D08B88120079
:0E015000010198B102D08B9201D08B82120077
:0E015E00010198B102D08A9001D08A8012006F
:0E016C00010198B102D08B9801D08B8812004F
:0E017A00010198B102D08D9001D08D8012004D
:0E018800010198B102D08F9401D08F84120033
:0E019600010198B102D08A9401D08A8412002F
:0E01A400010198B102D08F9001D08F8012001F
:0E01B200010198B102D08B9801D08B88120009
:0E01C000010198B102D08B9A01D08B8A1200F7
:0E01CE00010198B102D08B9601D08B861200F1
:0E01DC00010198B102D08B9601D08B861200E3
:0E01EA00010198B102D08F9201D08F821200D5
:0E01F800010198B102D08B9601D08B861200C7
:0E020600010198B102D08B9801D08B881200B4
:0E021400010198B102D08D9401D08D841200AA
:0E022200010198B102D08B9C01D08B8C120090
:0E023000010198B102D0899401D08984120096
:0E023E00010198B102D08D9601D08D8612007C
:0E024C00010198B102D08B9601D08B86120072
:10025A000F0121B302D00000FBD798C11CFF120086
:10026A00F250026EF29E0500FF6A0150FE6E0050C7
:08027A00FD6E02BEF28E1200BF
:100282000B6A0A6A096A00500402F4CF09F0F3CF3C
:1002920008F001500502F4CF0BF0F3CF0AF0005042
:1002A2000502F3500926F4500A22E86A0B22015093
:1002B2000402F3500926F4500A22E86A0B2208C00D
:1002C20000F009C001F00AC002F00BC003F01200F6
:1002D20037C0E1FF38C0E2FFE66A35C000F036C041
:1002E20001F0C2DF050E0D6E0D2EFED737C0E1FF05
:1002F20038C0E2FF010EE66E35C000F036C001F0F4
:04030200B3DF120053
:10030600FF0E0101736FFF0E746FFF0E756FFF0E08
:10031600766FFC0E6F6F000E706F980E716F010E88
:10032600726F949A9251040A02E1948601D09496CF
:100336009488C66AC79CC79E9251C6129451C6122B
:100346009351C712945305E09551000AD8B4C78C4F
:0C03560003D09553D8A4C78CC68A1200AF
:100362000134083609360450085E0550D8A0053C11
:10037200095E003601360F0E0C6E0134083609365E
:10038200045000A006D0085E0550D8A0053C095EC6
:1003920005D008260550D8B0053C0926003601369E
:1003A2000C2EEBD700B006D0045008260550D8B06A
:0803B200053C092600001200C1
:1003BA0058C1E1FF59C1E2FF010EE66E56C100F0D5
:1003CA0057C101F04DDF050E0D6E0D2EFED758C137
:1003DA00E1FF59C1E2FFE66A56C100F057C101F0D8
:0403EA003FDF1200DF
:1003EE005CC1E1FF5DC1E2FF010EE66E5AC100F095
:1003FE005BC101F033DF050E0D6E0D2EFED75CC115
:10040E00E1FF5DC1E2FFE66A5AC100F05BC101F097
:04041E0025DF1200C4
:1004220092C196F193C197F194C100F095C101F088
:10043200010E0101945F000E955B0050011013E064
:1004420054C1E1FF55C1E2FF96C1E9FF97C1EAFF3E
:10045200EECFE6FF52C100F053C101F005DF01010A
:08046200964B972BE1D7120025
:10046A0033C0E1FF34C0E2FFE66A31C000F032C0B7
:10047A0001F0F6DE050E0D6E0D2EFED733C0E1FF3C
:10048A0034C0E2FF010EE66E31C000F032C001F066
:10049A00E7DE150E0C6EC60E0D6E0D2EFED70C2E57
:0604AA00FCD70000120067
:1004B00001018B6B8C6B89C1D9FF8AC1DAFF000EF9
:1004C000DE1805E0894B8A2B8B4B8C2BF4D78BC124
:0804D00000F08CC101F01200E4
:1004D8000450000A08E10550000A05E1FF0E006E0D
:1004E8007F0E016E57D00D6A096A086A0150001024
:1004F800D8B4000C015005180A6E0ABE0D1E0B6A0E
:1005080005AE05D0041E051E042AD8B4052A01AE7E
:1005180005D0001E011E002AD8B4012A015005107A
:100528000A6E0ABE10D019DF0BB020D00DAE000C39
:10053800001E011E002AD8B4012A081E091E082A16
:10054800D8B4092A000C05AE0DD001BE07D0015061
:10055800096E0050086E016A006AE8D7016A006AED
:10056800002A000C011E001E0B2ADDD7082AD8B469
:10057800092A0450085CD8A4D9D70550095CD8A426
:10058800D5D7096A086A002AD8B4012A01AECED79D
:060598000000FF0C120040
:10059E0089C1F6FF8AC1F7FF8BC1F8FF0900F5CFBD
:1005AE0052F10900F5CF53F10900F5CF54F10900CE
:1005BE00F5CF55F1040E01018925F66E000E8A2144
:1005CE00F76E000E8B21F86E0900F5CF2DF00900A5
:1005DE00F5CF2EF00900F5CF2FF00900F5CF30F052
:0205EE001200F9
:1005F00089C1F6FF8AC1F7FF8BC1F8FF0900F5CF6B
:100600005AF10900F5CF5BF10900F5CF5CF1090063
:10061000F5CF5DF1080E01018925F66E000E8A21E5
:10062000F76E000E8B21F86E0900F5CF31F009004E
:10063000F5CF32F00900F5CF33F00900F5CF34F0F3
:10064000040E8925F66E000E8A21F76E000E8B21AE
:10065000F86E0900F5CF35F00900F5CF36F0090046
:10066000F5CF37F00900F5CF38F0180E8925F66E72
:10067000000E8A21F76E000E8B21F86E0900F5CF6F
:1006800056F10900F5CF57F10900F5CF58F10900EF
:06069000F5CF59F1120044
:1006960089C1F6FF8AC1F7FF8BC1F8FF0900F5CFC4
:1006A60092F1040E01018925F66E000E8A21F76E7D
:1006B600000E8B21F86E0900F5CF93F1080E8925FF
:1006C600F66E000E8A21F76E000E8B21F86E090079
:1006D600F5CF94F10C0E8925F66E000E8A21F76E81
:1006E600000E8B21F86E0900F5CF95F109DE000E9C
:0406F600006E120080
:1006FA0089C103F08AC104F08CC101F08DC102F0F6
:10070A00010E01018C5F000E8D5B000E021802E1E2
:10071A000150000A09E003C0E1FF04C0E2FF8BC1F7
:0A072A00E6FF034A042AE8D7120094
:1007340089C1F6FF8AC1F7FF8BC1F8FF0900F5CF25
:1007440092F1040E01018925F66E000E8A21F76EDE
:10075400000E8B21F86E0900F5CF93F1080E892560
:10076400F66E000E8A21F76E000E8B21F86E0900DA
:10077400F5CF94F10C0E8925F66E000E8A21F76EE2
:10078400000E8B21F86E0900F5CF95F1BADD000E4D
:04079400006E1200E1
:10079800086A080E0C6E003408360450085ED8B09B
:0E07A80002D00826D89000360C2EF5D712008D
:1007B60057D001018AB102D0929401D0928476D0AA
:1007C60001018AB102D0969601D096866FD00101BA
:1007D6008AB102D0969401D0968468D001018AB17C
:1007E60002D0949601D0948661D001018AB102D0DC
:1007F600949801D094885AD001018AB102D0949A73
:1008060001D0948A53D001018AB102D0989001D0C8
:1008160098804CD001018AB102D0939401D0938480
:1008260045D001018AB102D0989401D098843ED077
:1008360001018AB102D0989201D0988237D0010185
:100846008AB102D0949601D0948630D001018AB143
:1008560002D0949801D0948829D0010E006E28D039
:1008660001018951000AA5E08951010AA9E08951CF
:10087600020AADE08951030AB1E08951040AB5E0E4
:100886008951050AB9E08951060ABDE08951070A6E
:10089600C1E08951080AC5E08951090AC9E08951B0
:1008A6000A0ACDE089510B0AD1E0D7D7000E006EB7
:0208B60012002E
:1008B80057D001018AB102D0929001D0928076D0AF
:1008C80001018AB102D0949001D094806FD00101C7
:1008D8008AB102D0969001D0968068D001018AB181
:1008E80002D0949601D0948661D001018AB102D0D9
:1008F800949801D094885AD001018AB102D0949A70
:1009080001D0948A53D001018AB102D0949201D0C7
:1009180094824CD001018AB102D0939001D0938087
:1009280045D001018AB102D0949E01D0948E3ED068
:1009380001018AB102D0949C01D0948C37D0010176
:100948008AB102D0949601D0948630D001018AB140
:1009580002D0949801D0948829D0010E006E28D036
:1009680001018951000AA5E08951010AA9E08951CC
:10097800020AADE08951030AB1E08951040AB5E0E1
:100988008951050AB9E08951060ABDE08951070A6B
:10099800C1E08951080AC5E08951090AC9E08951AD
:1009A8000A0ACDE089510B0AD1E0D7D7000E006EB4
:0209B80012002B
:1009BA0057D001018AB102D0929201D0928276D0A8
:1009CA0001018AB102D0929801D092886FD00101B8
:1009DA008AB102D0969201D0968268D001018AB17A
:1009EA0002D0949601D0948661D001018AB102D0D6
:1009FA00949801D094885AD001018AB102D0949A6D
:100A0A0001D0948A53D001018AB102D0949401D0C2
:100A1A0094844CD001018AB102D0939201D093827E
:100A2A0045D001018AB102D0949E01D0948E3ED065
:100A3A0001018AB102D0949C01D0948C37D0010173
:100A4A008AB102D0949601D0948630D001018AB13D
:100A5A0002D0949801D0948829D0010E006E28D033
:100A6A0001018951000AA5E08951010AA9E08951C9
:100A7A00020AADE08951030AB1E08951040AB5E0DE
:100A8A008951050AB9E08951060ABDE08951070A68
:100A9A00C1E08951080AC5E08951090AC9E08951AA
:100AAA000A0ACDE089510B0AD1E0D7D7000E006EB1
:020ABA00120028
:100ABC0089C1F6FF8AC1F7FF8BC1F8FF0900F5CF9A
:100ACC0092F1040E01018925F66E000E8A21F76E53
:100ADC00000E8B21F86E0900F5CF93F1080E8925D5
:100AEC00F66E000E8A21F76E000E8B21F86E09004F
:100AFC00F5CF94F10C0E8925F66E000E8A21F76E57
:100B0C00000E8B21F86E0900F5CF95F183EC01F006
:060B1C00000E006E120045
:100B220001018C6B8D6B800E8D19006E800E005C46
:100B320002E1070E8C5DD8B0B5D0010E8E6F000EAB
:100B42008F6F7F0E006E800E8F19005C02E18E5156
:100B5200FF08D8B0A4D08CC100F08DC101F00036DE
:100B620000900136610E0026010E01228E510024F2
:100B7200036E8F510120046E03C0E9FF04C0EAFF37
:100B8200EECF02F002C000F00032009E03C0E1FF8F
:100B920004C0E2FF00C0E6FF000E8F1902E18E5191
:100BA200010A1DE18CC100F08DC101F000360090F8
:100BB2000136610E0024E96E010E0120EA6EEECFCD
:100BC20000F000C08BF1010E00148B6F8B378B91FC
:100BD2008B378B918B378B918B378B913DD02BB091
:100BE20007D0030E2B24896F8A6B000E8A2306D04E
:100BF2002B50010F896F8A6B000E8A23280E006E1C
:100C0200000E016E8CC104F08DC105F041EC01F0C3
:100C12003A0E0026000E012289510024E96E8A5103
:100C22000120EA6EEECF02F002C08BF129C001F082
:100C3200010E006E015004E000360090FF0FFBD75A
:100C4200005002148B6F29500408006E005004E01B
:100C52008B378B91FF0FFBD78CC100F08DC101F058
:100C6200003600900136610E0026010E01228E51DF
:100C72000024026E8F510120036E02C0E9FF03C0FF
:100C8200EAFF8B51EE10006E02C0E1FF03C0E2FFEB
:100C920000C0E6FF010E8E5F000E8F5B52D78C4BB9
:100CA2008D2B41D7294A2A2A000E006E2A50005C59
:100CB20002E1295004084FE2296A2A6A2B2A2B50A2
:100CC200395C49E28C6B8D6B800E8D19006E800E43
:100CD200005C02E1070E8C5D3CE28E6B8F6B800E36
:100CE2008F19006E800E005C02E1020E8E5D2EE214
:100CF2008CC100F08DC101F0003600900136610E0A
:100D02000026010E01228E510024906F8F51012086
:100D1200916F280E006E000E016E8CC104F08DC121
:100D220005F041EC01F03A0E0026000E01228E5130
:100D32000024E96E8F510120EA6E90C1E1FF91C15A
:100D4200E2FFEECFE6FF8E4B8F2BC9D78C4B8D2B5C
:080D5200BBD72B6A5E6B120097
:100D5A0089C18DF18AC18EF169EC01F0DDEC01F0F7
:100D6A0001018B6B8C6B800E8C19006E800E005CFF
:100D7A0002E1070E8B5D1BE28BC100F08CC101F012
:100D8A0000360090013600508D25926F01508E2159
:100D9A00936F020E946F000E956F11EC02F035EC12
:100DAA0002F0F7EC01F001018B4B8C2BDCD712001F
:100DBA0015D07BC189F17CC18AF179DD1AD07BC15A
:100DCA0089F17CC18AF1F4DD14D07BC189F17CC13F
:100DDA008AF1ECDC0ED0010E006E0BD001017A51C3
:100DEA00000AE7E07A51010AEAE07A51020AEDE0E4
:040DFA00F2D712001A
:100DFE001BD07BC189F17CC18AF17DC18BF157DE9D
:100E0E001ED07BC189F17CC18AF17DC18BF13CDCA6
:100E1E0016D07BC189F17CC18AF17DC18BF183DC57
:100E2E000ED0010E006E0BD001017A51000AE1E0E6
:100E3E007A51010AE6E07A51020AEBE0F2D712008B
:100E4E007DC189F17EC18AF17FC18BF1CFEC02F0B9
:100E5E007AC189F17BC18AF17CC18BF1F8EC02F089
:060E6E0069EC01F0120026
:100E740001017A5107080AE37B510A0807E37A5112
:100E8400000A04E07B51000A01E001D05DD0060EA7
:100E94007B5D2FE27A05036E046A000E045A03C0D8
:100EA40000F004C001F0003600900136610E002607
:100EB400010E0122010E0024026E000E0120036EB9
:100EC4007B05006E00C001F0010E006E015004E0CD
:100ED40000360090FF0FFBD702C0E9FF03C0EAFF12
:100EE400EE50001202C0E1FF03C0E2FF00C0E6FFC3
:100EF4002BD07A05036E046A000E045A03C000F076
:100F040004C001F0003600900136610E0024026E28
:100F1400010E0120036E060E7B5D006E00C001F021
:100F2400010E006E015004E000360090FF0FFBD765
:100F340002C0E9FF03C0EAFFEE50001202C0E1FF65
:0A0F440003C0E2FF00C0E6FF120048
:100F4E0001015E5336E024D0000E006E6051005C4D
:100F5E0002E15F51070803E2DDDD5F6B606B21D0BC
:100F6E00000E006E6051005C02E15F51050803E265
:100F7E00D1DD5F6B606B15D0000E006E6051005CB2
:100F8E0002E15F51010803E2C5DD5F6B606B09D0C2
:100F9E002C50000AD9E02C50010AE2E02C50020A33
:100FAE00EBE0610E896F010E8A6FD0DE5EC100F03C
:100FBE0007D0610E896F010E8A6FC8DE010E006EBA
:020FCE0012000F
:100FD000CC0E01017F6F150E806F000E816F7A516C
:100FE000630801E2FCD00A0E7A5D4BE2300E7A25EE
:100FF000036E046A000E0422030E026E03C000F0AA
:1010000004C001F0025005E0003600900136FF0FE9
:10101000FAD7CC0E00247F6F150E0120806F000ED2
:10102000816F000E01BEFF0E81237D6B7E6B800EF3
:101030007E19006E800E005C02E1070E7D5D20E2ED
:101040007DC100F07EC101F0003600900136610ED6
:101050000024E16E010E0120E26E7FC1F6FF80C127
:10106000F7FF81C1F8FF0900F5CF00F000C0E6FFEF
:10107000010E7F27000E802381237D4B7E2BD7D747
:10108000AED00A0E046E7AC100F0CCEC03F000C0C2
:101090007BF1000E7C6F300E7B25036E000E7C21F1
:1010A000046E030E026E03C000F004C001F0025093
:1010B00005E0003600900136FF0FFAD7CC0E002471
:1010C0007F6F150E0120806F000E816F000E01BE34
:1010D000FF0E81237D6B7E6B800E7E19006E800E6D
:1010E000005C02E1070E7D5D24E27DC100F07EC15F
:1010F00001F0003600900136610E0026010E01223B
:10110000010E0024E16E000E0120E26E7FC1F6FFA9
:1011100080C1F7FF81C1F8FF0900F5CF00F000C0E2
:10112000E6FF010E7F27000E802381237D4B7E2B5F
:10113000D3D70A0E046E7AC100F0CCEC03F008C0DD
:1011400000F000C07BF1000E7C6F300E7B25036E3B
:10115000000E7C21046E030E026E03C000F004C07A
:1011600001F0025005E0003600900136FF0FFAD77B
:10117000CC0E00247F6F150E0120806F000E816F52
:10118000000E01BEFF0E81237D6B7E6B800E7E19EB
:10119000006E800E005C02E1070E7D5D20E27DC1E5
:1011A00000F07EC101F0003600900136610E00248F
:1011B000E16E010E0120E26E7FC1F6FF80C1F7FFF4
:1011C00081C1F8FF0900F5CF00F000C0E6FF010E75
:1011D0007F27000E802381237D4B7E2BD7D71200E3
:1011E000010E01015F25006E000E6021016E00C03E
:0811F0005FF101C060F1120083
:0611F80001015E6B120014
:1011FE00610E0101896F010E8A6F8B6B0E0E8C6F63
:0A120E00000E8D6F7DEC03F012005E
:101218007AC17CF17BC17DF1CC0E0101846F150E82
:10122800856F000E866F7AC189F17BC18AF158EC0F
:1012380002F000C039F00050280802E2280E396E8A
:101248003A0E896F000E8A6F8B6B180E8C6F010E29
:101258008D6F7DEC03F00101826B836B800E831927
:10126800006E800E005C02E13950825DD8B0ACD0CF
:101278007CC1E9FF7DC1EAFFEECF03F0030E026EE9
:1012880003C000F0000E016E025005E00036009029
:101298000136FF0FFAD7CC0E0024846F150E0120FB
:1012A800856F000E866F000E01BEFF0E86237C4BF5
:1012B8007D2B020E046E000E056E82C100F083C104
:1012C80001F06CEC02F008C000F009C001F0005019
:1012D80001103CE101017E6B7F6B800E7F19006E6F
:1012E800800E005C02E1070E7E5D2FE2280E006E84
:1012F800000E016E7EC104F07FC105F041EC01F0E3
:101308003A0E0024026E000E0120036E010E8225A3
:10131800006E000E8321016E00500224E16E015020
:101328000320E26E84C1F6FF85C1F7FF86C1F8FF8E
:101338000900F5CF00F000C0E6FF010E8427000E7B
:10134800852386237E4B7F2BC8D73BD001017E6B3C
:101358007F6B800E7F19006E800E005C02E1070E25
:101368007E5D2FE2280E006E000E016E7EC104F035
:101378007FC105F041EC01F03A0E0024026E000E28
:101388000120036E010E825D006E000E8359016E0E
:1013980000500224E16E01500320E26E84C1F6FF82
:1013A80085C1F7FF86C1F8FF0900F5CF00F000C03E
:1013B800E6FF010E8427000E852386237E4B7F2BB4
:1013C800C8D7824B832B4AD77E6B7F6B800E7F19E1
:1013D800006E800E005C02E1070E7E5D3CE2806BD1
:1013E800816B800E8119006E800E005C02E1020E96
:1013F800805D2EE27EC100F07FC101F000360090D2
:101408000136610E0026010E012280510024876FEB
:1014180081510120886F280E006E000E016E7EC17A
:1014280004F07FC105F041EC01F03A0E0026000EF1
:10143800012280510024E96E81510120EA6E87C1A2
:10144800E1FF88C1E2FFEECFE6FF804B812BC9D7D1
:081458007E4B7F2BBBD7120075
:10146000010E01015E6F7AC12CF05F6B606B1200A0
:1014700001017A6B7B6B7C6BA0DC01017A6B010E46
:101480007B6F7C6B9ADC01017A6B020E7B6F7C6B4D
:1014900094DC01017A6B060E7B6F7C6B8EDC0101A4
:1014A0007A6B430E7B6F1E0E7C6F000E7D6FA7DC88
:1014B000090E0B6E1E0E0C6EE40E0D6E0D2EFED779
:0C14C0000C2EFCD70B2EFAD700001200F7
:1014CC000900F5CFE6FF0006FBE10106F9E1120089
:1014DC00010E0101796F150E7A6F000E7B6F96DE8F
:1014EC00010E7A6FB7DF000E79190EE02ADD00C00D
:1014FC0079F170DE150E0C6EC60E0D6E0D2EFED72C
:10150C000C2EFCD70000EFD771DE73DE0101776B78
:10151C000B0E775D16E26DDE77C17AF153DD786BD9
:10152C001E0E785D0CE20DDD150E0C6EC60E0D6EEA
:10153C000D2EFED70C2EFCD70000782BF1D7772B75
:10154C00E7D757DE020E01017A6F030E7B6F8CDC3E
:10155C00020E7A6F080E7B6F87DC060E7A6F030E15
:10156C007B6F82DC060E7A6F080E7B6F7DDC776BEF
:10157C00FF0E775D0CE2E5DC150E0C6EC60E0D6EE3
:10158C000D2EFED70C2EFCD70000772BF1D731DEB9
:02159C0012003B
:10159E00CC0E01017A6F1D0E7B6F000E7C6F530E09
:1015AE007D6F1E0E7E6F000E7F6F4ADC21DE1200F5
:0E15BE002EEC0FF056DFECDF8ADFFED7FFD7F2
:101E5C0010EE15F0170E006E010E016E2C0EF66EC4
:0E1E6C001E0EF76E000EF86E66EC0AF0120005
:1015CC00000000000000000000000000000000000F
:1015DC0000000000000000000000000000000000FF
:1015EC0000000000000000000000000000000000EF
:1015FC0000000000000000000000000000000000DF
:10160C0000000000000000000000000000000000CE
:10161C0000000000000000000000000000000000BE
:10162C0000000000000000000000000000000000AE
:10163C00000000000000000000000000000000009E
:10164C00000000000000000000000000000000008E
:10165C00000000000000000000000000000000007E
:10166C00000000000000000000000000000000006E
:10167C00000000000000000000000000000000005E
:10168C00000000000000000000000000000000004E
:10169C00000000000000000000000000000000003E
:1016AC00000000000000000000000000000000002E
:1016BC00000000000000000000000000000000001E
:1016CC0000000000000000000404040400000400FA
:1016DC000A0A0A00000000000A0A1F0A1F0A0A0070
:1016EC00041E050E140F040003130804021918003D
:1016FC000609050215091600060402000000000088
:10170C00080402020204080002040808080402008B
:10171C000004150E150400000004041F040400004E
:10172C0000000000060402000000001F0000000082
:10173C000000000000060600001008040201000072
:10174C000E11191513110E000406040404040E00E6
:10175C000E11100804021F001F08040810110E00BF
:10176C00080C0A091F0808001F010F1010110E00A9
:10177C000C02010F11110E001F10080402020200CE
:10178C000E11110E11110E000E11111E1008060073
:10179C00000606000606000000060600060402000D
:1017AC00080402010204080000001F001F000000D2
:1017BC0002040810080402000E11100804000400B2
:1017CC000E11101615150E000E1111111F1111000E
:1017DC000F11110F11110F000E11010101110E004B
:1017EC0007091111110907001F01010F01011F0049
:1017FC001F01010F010101000E11011D11111E002D
:10180C001111111F111111000E04040404040E0017
:10181C001C08080808090600110905030509110030
:10182C000101010101011F00111B151511111100FE
:10183C0011111315191111000E11111111110E00A6
:10184C000F11110F010101000E11111115091600D4
:10185C000F11110F050911001E01010E10100F00C0
:10186C001F040404040404001111111111110E00C1
:10187C0011111111110A04001111111515150A007D
:10188C0011110A040A1111001111110A04040400A7
:10189C001F10080402011F000E02020202020E00B9
:1018AC0000010204081000000E08080808080E00C9
:1018BC00040A1100000000000000000000001F00DE
:1018CC000C0408000000000000000E101E111E0089
:1018DC0001010F1111110F0000001E0101011E006A
:1018EC0010101E1111111E0000000E111F010E0010
:1018FC0018041F040404040000001E111E100E0026
:10190C0001010D13111111000400060404040E0052
:10191C0008000C08080906000202120A060A120046
:10192C000604040404040E0000000B151515150024
:10193C0000000D131111110000000E1111110E00F9
:10194C0000000F110F01010000001E111E101000ED
:10195C0000001A060202020000000E010E100F0019
:10196C0004041F04040418000000111111191600BE
:10197C0000001111110A04000000111115150A00C4
:10198C000000110A040A1100000011111E100E00B3
:10199C0000001F0804021F001804040204041800AD
:1019AC0004040404040404000304040804040300F1
:1019BC0002150800000000000000000000000000FC
:1019CC00000000000000000000000000000000000B
:1019DC0000000000000000000000000000000000FB
:1019EC0000000000000000000000000000000000EB
:1019FC0000000000000000000000000000000000DB
:101DCC00C4009801EE0098017A019801CE019801A7
:101DDC006C01980118019801500198015E0198015D
:101DEC00D20098019A00980138009801620098017D
:101DFC00FFFFFFFFFFFFFFFFFFFFFFFFFFFFFFFFE7
:101E0C00FFFFFFFFFFFFFFFFFFFFFFFFFFFFFFFFD6
:101E1C00FFFFFFFFFFFFFFFFFFFFFFFFFFFFFFFFC6
:101E2C0020204D696B726F20456C656B74726F6E00
:041E3C00696B61006D
:021E40000000A0
:011E4200009F
:101E4300000000000000000000000000010000008E
:081E5300FC009801FFFFFFFFF6
:020000040030CA
:0E00000015137F7CF98B91FFFFC0FFE0FF40DE
:00000001FF
